:020000041000EA
:1000000000B5324B212058609868022188439860DF
:10001000D860186158612E4B002199600221596106
:100020000121F02299502B49196001219960352056
:1000300000F044F80222904214D00621196600F024
:1000400034F8196E01211966002018661A6600F04E
:100050002CF8196E196E196E052000F02FF8012189
:100060000842F9D1002199601B49196000215960AB
:100070001A491B48016001219960EB211966A021F2
:10008000196600F012F800219960164914480160C1
:100090000121996001BC002800D000471248134993
:1000A000086003C880F30888084703B5996A0420EC
:1000B0000142FBD001200142F8D103BD02B5186610
:1000C0001866FFF7F2FF186E186E02BD00000240BE
:1000D000000000180000070000035F00212200005C
:1000E000F4000018222000A00001001008ED00E03C
:1000F00000000000000000000000000074B24E7A12
:1001000000200420F7010010C3010010C5010010F9
:10011000C1010010C1010010C1010010C101001097
:10012000C1010010C1010010C1010010C701001081
:10013000C1010010C1010010C9010010CB01001065
:10014000CD010010CD010010CD010010CD01001037
:10015000CD010010CD010010CD010010CD01001027
:10016000CD010010CD010010CD010010CD01001017
:10017000CD010010CD010010CD010010CD01001007
:10018000CD010010CD010010CD010010CD010010F7
:10019000CD010010CD010010CD010010CD010010E7
:1001A000CD010010CD010010CD010010CD010010D7
:1001B000CD010010CD010010CD010010CD010010C7
:1001C00000BE00BE00BE00BE00BE00BEEFF3058054
:1001D000103800BEF2EB887180B80010A0B8001093
:1001E0003402001090A31AE700201F49086006C8D7
:1001F00081F3088810471D48006800282FD10DA4FE
:100200000ECC002902D000F012F8F9E71849194A7B
:10021000002000E001C19142FCD1174988471749ED
:1002200088471749884700BEFDE701C901C29A42C5
:10023000FBD37047A0B80010C00000202815002094
:1002400008CD0010000004200000042008CD00109C
:10025000001004200010042000000000704709482E
:1002600006F00EFE0047000008ED00E0000000D0A0
:1002700028150020FCF30320E5550010653200101E
:10028000D55600105756000006005250ABB36053CD
:1002900008B6001006005250861C030218B6001063
:1002A000060052505422A29D24B600100500525060
:1002B000DE65F46808CD0010F8B5C0460448054B6B
:1002C00010B5834203D0044B002B00D0984710BDDB
:1002D00028150020281500200000000006480749C6
:1002E000091A8B10C90FC91810B5491003D0044B57
:1002F000002B00D0984710BD28150020281500209D
:100300000000000010B5074C2378002B09D1FFF73F
:10031000D5FF054B002B02D0044800E000BF0123AD
:10032000237010BD7018002000000000F8AE00100F
:10033000054B10B5002B03D00449054800E000BF71
:10034000FFF7CCFF10BDC04600000000741800206D
:10035000F8AE0010F0B54546DE4657464E46E0B5CD
:10036000002089B00AF052F95C4D5D4BA946049318
:100370005C4B5D4F98465D4B06935D4B07935D4B21
:1003800003935D4B02930AF04BF9049C0590200007
:100390000AF0AAFD4346012220001A600AF034FD4B
:1003A000069B079A1B6912685A43012393465B44D4
:1003B0009A463B78002B00D18DE0D0435346002570
:1003C0005446381819001B19C25C0135002AF9D1AE
:1003D000A24601317B5CD0248026002201934B464B
:1003E0002406F6001A600120666104F02DFA01204F
:1003F000A66104F029FA059B002B02D000223F4B96
:100400001A6143461B6800260021022B23D04B466D
:10041000A9461D003A4CB1454ED1019B002B19D085
:100420003B78791C5A46374823610AF035FD51461E
:10043000029B1B78002B33D1012680225200636877
:100440001342FCD1236A2B6801332B6043461B689F
:10045000022BE0D1A9460120039BA02219682A4B58
:100460008840D205D050294B80229C4689016144A6
:1004700052040B681C0014401342FAD18023244A12
:100480001B061360049D1360224A2800136013604A
:100490000AF02AFD434628001C600AF0B5FC72E70A
:1004A000A022D2059446039B1B4A1B689B01634410
:1004B0001A604A46DA61BFE77B5C01312361791833
:1004C0005A4610480AF0E8FC5146731C5943002E66
:1004D000AED01E00B1E7012100257BE7CCF303205D
:1004E000A8F30320A4F30320702200202815002085
:1004F0008C180020C8F30320F7F3032000003050CD
:100500000000205000000440440400000C00005093
:10051000D0102050D010305050A40320F0B5D64653
:100520004F464646C0B5424C84B0200041490AF0CF
:1005300001FA06210500102003F0AEFA0621112071
:1005400003F0AAFA0621122003F0A6FA06211320CE
:1005500003F0A2FA0621162003F09EFA06210820D5
:1005600003F09AFA9E2220000021334BD2030AF0B6
:1005700059FAEB1DEA011B031343304A80279246C8
:1005800013408022D205134301932D4B2D4E03932C
:1005900080235B00984642462B4B7F020296200048
:1005A000009700211A606B462A000AF08FFA012298
:1005B0002368264913432360254C914620000AF006
:1005C000B9F9031DC2011B031343524613400193A3
:1005D000C0231B030293802305009B0507210820ED
:1005E0000393009703F058FA434642462000002147
:1005F0000AF018FA039A174B00211A408423DB02F1
:1006000013430393144A029B200013401E432A0005
:100610006B46029600970AF059FA4A46236813433C
:10062000236004B0E0BCBA46B146A846F0BDC0465F
:100630000000205010B2001000014F00FFFFFF9F8C
:100640001058444000001D0238202050F8B100101E
:1006500000003050FF03F0FFFFFF00C0F8B5DE469A
:1006600057464E4645460120E0B504F0B3FE8346AA
:10067000022004F0AFFE8246032004F0ABFE814668
:10068000092004F0A7FE80460A2004F0A3FE07001C
:100690000B2004F09FFE06000C2004F09BFE0500DA
:1006A0000D2004F097FE04005946124807F0ECFDB7
:1006B0005146114807F0E8FD4946104807F0E4FDAF
:1006C00041460F4807F0E0FD39000E4807F0DCFD19
:1006D00031000D4807F0D8FD29000C4807F0D4FD83
:1006E00021000B4807F0D0FDF0BCBB46B246A9463E
:1006F000A046F8BD58AF00106CAF001080AF0010DE
:1007000090AF0010A4AF0010B8AF0010CCAF001035
:10071000E0AF001070B5D02480252406AD006561DF
:10072000012004F091F8A56180250120ED0004F07E
:100730008BF86561012004F087F8A561012004F0C1
:1007400083F801230E220748C3600361064B8168CA
:100750001A6002F0E7FF03F041F80022034B1A6130
:1007600070BDC046281500208C18002000002050C5
:10077000F0B54546DE4657464E46E0B50024C24D2C
:10078000A7B001E00134285507F08EFDC0B20A2859
:10079000F8D10023BD4E3355BD4C20000AF0A4FB18
:1007A000BC4D20002F680AF02FFBBB4B32689A42E9
:1007B00000D112E1B94B32689A4200D1FDE0B84B4A
:1007C00032689A4200D12DE1B54B32689A4200D18D
:1007D00010E1B44B32689A4200D11BE1B24B32684F
:1007E0009A4200D13CE1B14B32689A4200D1ADE16E
:1007F000AF4B32689A4200D120E1002F00D0E2E1F5
:10080000AC4B32689A4200D1E3E1AB4A3368934281
:1008100000D103E2A94A934200D109E2A84A9342D7
:1008200000D134E2A64B32689A4200D152E2A54B85
:1008300032689A4200D1D4E2A34B32689A4200D186
:1008400055E2A24B32689A4201D102F0F6FB300029
:100850009F490AF0B5F9041E01D102F0A5FB082258
:1008600030009C490AF01EFA041E01D102F01AFB66
:100870000B22300098490AF015FA041E01D101F04C
:100880007BFF0C22300095490AF00CFA80460028C4
:1008900001D100F0B9FD0422300091490AF002FABA
:1008A000041E01D100F0E6FC082230008D490AF058
:1008B000F9F9002800D0E9E28B4B8C4E029325AB6E
:1008C0009B4624ABB0461F005E463A0088488949E3
:1008D00002F072FD03233A000021062002F0C6FD5B
:1008E000002580220299844C8946844B256112069A
:1008F0000800009602F086FD042332000021042047
:1009000002F0B4FD3A0000207D49256102F054FD5B
:1009100003233A000121062002F0A8FD0022794BB2
:1009200025614846009602F06DFD04233200012146
:10093000042002F09BFD0120256103F085FF802249
:10094000714B12064846009602F05CFD042332000B
:100950000021042002F08AFD3A006C486C492561B0
:1009600002F02AFD03233A000021062002F07EFD5A
:100970000022684B25614846009602F043FD04239F
:1009800032000121042002F071FD3A0000205C4990
:10099000256102F011FD03233A000121062002F037
:1009A00065FD0120256103F04FFF01235B429C465A
:1009B000E0444346002B88D108E0574BB2889A4266
:1009C00000D0FCE63900554807F05EFC27B0F0BCCB
:1009D000BB46B246A946A046F0BD514BB2889A42EA
:1009E00000D0E7E6B3796E2B00D0E3E64D4807F080
:1009F00059FBEBE74C4B72689A4200D0E9E6337A38
:100A0000662B00D0E5E60022484B49481A7007F0F3
:100A100049FBDBE7474B72689A4200D0DEE6FFF7FE
:100A20001DFED3E7444B72689A4200D0CCE6012207
:100A30003E4B3F481A7007F035FBC7E73379742BFC
:100A400000D0DAE620000AF04FFA2E6820000AF003
:100A5000DBF9012E00D101E1354807F023FBB5E7B2
:100A6000364B72689A4200D0BDE6354B32899A42C5
:100A700000D0B8E6B37A732B00D0B4E6314B3248DD
:100A8000196807F001FCA1E793F2032094F2032018
:100A9000A8F30320A4F30320766572737374617462
:100AA00064656275676574666E756D74726573658D
:100AB00061626F72726561646C6F616473617665A7
:100AC0007365746673657461636865634375737495
:100AD00040B100104CB1001058B1001074B10010BA
:100AE0009CB10010A4B100102815002011270000AF
:100AF000986E1283C0CAE53F000020508162944185
:100B00000000F03F068194417D0F9B41295C8FC21C
:100B1000F528E83F022E9B41757300000CB00010D1
:100B2000696F0000FCAF001067206F66F80F0020AF
:100B30001CB000107265717367206F6E7269676711
:100B400065720000CCF3032044B000103379742B9D
:100B500000D04DE620000AF0C7F92E6820000AF008
:100B600053F9012E41D0D02680273606BF00776189
:100B7000012003F069FEB76180270120FF0003F028
:100B800063FE7761012003F05FFEB761012003F08F
:100B90005BFE01230E220026A248C3600361A24B24
:100BA00081681A6002F0BEFD02F018FE9F4B200023
:100BB0001E610AF099F920002E600AF025F99C4880
:100BC00007F070FA02E7002231009A4807F05CFB58
:100BD000FCE6994B72689A4200D016E602F0D2FD0C
:100BE000924B1F6102F066FC36E720000AF07CF9A8
:100BF000D02602238027200036067F002B600AF0D3
:100C000003F9082002F060FF77620120B761776185
:100C100003F01AFEB761FFF781FCA4E7F4228749CD
:100C20009202874807F070F9814807F03BFACDE659
:100C3000EFF3108472B6F42180208902C0020AF01A
:100C40001BF9F42280207E499202C0020AF0FCF8CF
:100C500084F31088764807F025FAB7E620000AF0FA
:100C600043F9022320002B60D024802524066D0048
:100C70000AF0CAF8082002F027FF65620120A5618A
:100C8000656103F0E1FDA561FFF748FCE4E66D4B0B
:100C900072689A4200D0C5E58022002625AF6148DF
:100CA000694B0097120602F0ADFB042304000D000F
:100CB00018003A00310002F0D9FB5C4B1E61634B17
:100CC0001B78B34200D1C7E622002B00604807F032
:100CD000DBFAC1E65F4B72689A4200D0A7E580223A
:100CE00025AF00264F485C4B00971206DBE75B4BB5
:100CF000B2889A4200D0A4E5B379002B00D0A0E5D9
:100D0000574B80240493474B8026029325AB9B4688
:100D100024AB9A465B46D3469A46524D524F240620
:100D2000360622AA5148524902F046FB032300210D
:100D3000062022AA02F09AFB3C4B02989846002318
:100D4000994643464A461A615B46320000933B008F
:100D500002F058FB04235A4606000F00042000212D
:100D600002F084FB43464A46FA201A61800003F0F1
:100D70006BFD53462200009302982B0002F042FBC9
:100D80000423524604000D000420002102F06EFBF3
:100D900043464A4637481A61374923AA02F00CFBFA
:100DA00003230021062023AA02F060FB43464A46A3
:100DB000FA201A61C00003F047FD049B013B049335
:100DC000002BAED123AA0020002102F0F5FA032364
:100DD00023AA0021062002F049FB4346049A1A6127
:100DE000F4E5264BB2889A4200D025E525AA24488E
:100DF000244902F0E1FA0026032304000D00062036
:100E0000310025AA02F032FB084B1E610F4B1B7804
:100E1000B34200D120E622002B001B4807F034FA31
:100E20001AE6C046281500208C180020000020502B
:100E30001CB0001058B000107265677300000410F9
:100E4000702200207265713181629441F80F002098
:100E500000B1001072657132BCBA9C416B76000023
:100E600030750000FFB89741C00D9641EC51B81E97
:100E700085EBE53FB6F3FDD478E9E63F6D70000001
:100E8000986E1283C0CAE53F24B1001008223000DA
:100E9000DA4909F007FF041E01D101F0A5FA082282
:100EA0003000D74909F0FEFE041E01D101F052F9CD
:100EB00008223000D34909F0F5FE051E01D100F0EB
:100EC00076FF08223000D04909F0ECFE041E01D163
:100ED00000F0F8FC08223000CC4909F0E3FE041EC3
:100EE00000D10DE308223000C94909F0DBFE041EE1
:100EF00000D06BE524AB9A461A000020C54902F0E9
:100F00005BFA032352460121062002F0AFFAC24BDE
:100F100004251C61C14B01270493C14B029325ABEF
:100F20009B4603239846DB1899465E460022BD4B3C
:100F30000298009602F066FA2B0032003900280071
:100F4000002402F093FAB44B52469B461C61B6480B
:100F5000B64902F031FA434652462100484602F0B3
:100F600085FA5B4680221C611206B14B02980096FE
:100F700002F048FA320021002B00280002F076FA35
:100F80005B4638001C6103F05FFC5246A948AA4941
:100F900002F012FA434652462100484602F066FA31
:100FA0005B4680221C611206A44B0298009602F058
:100FB00029FA320021002B00280002F057FA5B4684
:100FC00038001C6103F040FC00229D4B0298009603
:100FD00002F018FA2B0032003900280002F046FA1D
:100FE0005B4652461C619748974902F0E5F9434633
:100FF00052462100484602F039FA5B4680221C61C5
:101000001206924B0298009602F0FCF93200210081
:101010002B00280002F02AFA5B4638001C6103F01E
:1010200013FC52468A488B4902F0C6F943465246A1
:101030002100484602F01AFA5B4680221C61120623
:10104000854B0298009602F0DDF9320021002B005A
:10105000280002F00BFA5B4638001C6103F0F4FB39
:1010600000227E4B0298009602F0CCF92B00320051
:101070003900280002F0FAF95B4652461C617848B4
:10108000784902F099F9434652462100484602F059
:10109000EDF95B4680221C611206734B02980096A4
:1010A00002F0B0F9320021002B00280002F0DEF936
:1010B0005B4638001C6103F0C7FB00226B4B0298B3
:1010C000009602F09FF92B0032003900280002F050
:1010D000CDF95B4652461C615A485B4902F06CF9F7
:1010E000434652462100484602F0C0F95B46802242
:1010F0001C611206554B0298009602F083F93200EB
:1011000021002B00280002F0B1F95B4638001C6179
:1011100003F09AFB52464E484E4902F04DF94346C1
:1011200052462100484602F0A1F95B4680221C612C
:101130001206494B0298009602F064F93200210031
:101140002B00280002F092F95B4638001C6103F086
:101150007BFB0022464B0298009602F053F92B00CD
:1011600032003900280002F081F95B4652461C61CA
:101170002D482E4902F020F94346524621004846A8
:1011800002F074F95B4680221C611206284B02981B
:10119000009602F037F9320021002B00280002F0FF
:1011A00065F95B4638001C6103F04EFB524621484E
:1011B000214902F001F9434652462100484602F017
:1011C00055F95B4680221C6112061C4B0298009662
:1011D00002F018F92B0032002100280002F046F935
:1011E0005B4638001C6103F02FFB049B013B04931A
:1011F000A34200D09AE6FFF7E9FBC046B0B1001069
:10120000BCB10010C8B10010D4B10010E0B10010A2
:10121000ECB100100000F03F00002050112700004A
:101220002815002006819441986E1283C0CAE53FBC
:1012300081629441295C8FC2F528E83F7D0F9B4174
:10124000452C9641EC51B81E85EBE53FC00D96410B
:10125000E5D022DBF97EE63F3E64994184D7974191
:101260008B6CE7FBA9F1E63FFFB89741C382994138
:10127000022E9B4124AB9A461A008B488B4902F000
:101280009BF8032352462100062002F0EFF8884B1A
:10129000884F1C61884B25AAB94693465746984605
:1012A0003A008648864902F087F803233A00002175
:1012B000062002F0DBF800245B4680227C4D1206FB
:1012C0002C61404600937F4B02F09CF804235A4661
:1012D0000021042002F0CAF82C61012003F0B4FAC6
:1012E0003A000020002102F067F803233A000021B1
:1012F000062002F0BBF800265B4600222E61404625
:101300000093002302F07EF8013404235A460021A2
:10131000042002F0ABF82E61062C3DD0012C45D004
:10132000032C5FD0052CD8D15B4680220093120697
:10133000654B404602F066F804235A46002104201B
:1013400002F094F83A00614861492E6102F034F8E5
:1013500003233A000021062002F088F801202E61C4
:1013600003F072FA3A000020002102F025F803236E
:101370003A000021062002F079F85B4600222E6137
:1013800040460093002302F03DF804235A46002112
:10139000042002F06BF82E6101235B429C46E1447D
:1013A0004B46002B00D07BE7FFF710FB3A00494883
:1013B000494902F001F803233A000021062002F017
:1013C00055F85B4680222E610093444B120640463E
:1013D00002F018F804235A460021042002F046F8CF
:1013E0002E617AE73A003E483E4901F0E5FF0323CB
:1013F0003A000021062002F039F85B4680222E6177
:1014000012060093384BE2E724AA0020374901F086
:10141000D3FF032304000D000620414624AA02F056
:1014200025F84346224F22003B6131482B0006F04D
:101430002BFFFA235B00994625AA93461E4B2D4AA3
:10144000CA46904699465526300006F047F80022D5
:10145000294B05F0B3FF0022284B04000D0005F0D6
:10146000D4FF0B00594602000091484601F0CAFF24
:101470005A4600210423042001F0F8FF0023022033
:101480003B6103F0E1F9013622002B00404606F0F3
:10149000FBFE7A2ED8D101235B429C46E2445346A0
:1014A000002BD0D1FFF792FA9A9999999999E13F37
:1014B000000020503075000028150020986E12831F
:1014C000C0CAE53F81629441BCBA9C417B14AE47DF
:1014D000E17AEC3FEC51B81E85EBE53FC00D96413B
:1014E000E5D022DBF97EE63F3E6499410000F03F03
:1014F00064B1001084B100100000E03F80842E41F0
:1015000024AB9A461A000020D64901F055FF032368
:1015100052460121062001F0A9FFD34B04251C618E
:10152000D24B01270493D24B029325AB9B46032356
:101530009846DB1899465E460022CE4B02980096EC
:10154000002401F05FFF320039002B00280001F079
:101550008DFFC54B38009B461C6103F075F9524660
:10156000C548C64901F028FF434652462100484677
:1015700001F07CFF5B4680221C611206C04B029882
:10158000009601F03FFF320021002B00280001F0FF
:101590006DFF5B4638001C6103F056F95246B948AE
:1015A000B94901F009FF434652462100484601F07F
:1015B0005DFF5B4680221C611206B44B02980096C8
:1015C00001F020FF320021002B00280001F04EFF27
:1015D0005B4638001C6103F037F95246AC48AD4910
:1015E00001F0EAFE434652462100484601F03EFF24
:1015F0005B4680221C611206A74B0298009601F000
:1016000001FF320021002B00280001F02FFF5B4674
:1016100038001C6103F018F95246A048A04901F0B7
:10162000CBFE434652462100484601F01FFF5B4671
:1016300080221C6112069B4B0298009601F0E2FE8C
:10164000320021002B00280001F010FF5B4638001B
:101650001C6103F0F9F852469348944901F0ACFE3E
:10166000434652462100484601F000FF5B46802277
:101670001C6112068E4B0298009601F0C3FE3200E8
:1016800021002B00280001F0F1FE5B4638001C61B0
:1016900003F0DAF80022874B0298009601F0B2FEC0
:1016A000320039002B00280001F0E0FE5B463800D4
:1016B0001C6103F0C9F852466F48704901F07CFE86
:1016C000434652462100484601F0D0FE5B46802248
:1016D0001C6112066A4B0298009601F093FE3200DC
:1016E00021002B00280001F0C1FE5B4638001C6180
:1016F00003F0AAF852466348634901F05DFE434691
:1017000052462100484601F0B1FE5B4680221C6132
:1017100012065E4B0298009601F074FE3200210022
:101720002B00280001F0A2FE5B4638001C6103F08C
:101730008BF852465648574901F03EFE4346524602
:101740002100484601F092FE5B4680221C61120691
:10175000514B0298009601F055FE320021002B00FB
:10176000280001F083FE5B4638001C6103F06CF832
:1017700052464A484A4901F01FFE4346524621005C
:10178000484601F073FE5B4680221C611206454B01
:101790000298009601F036FE320021002B0028004E
:1017A00001F064FE5B4638001C6103F04DF85246C0
:1017B0003D483E4901F000FE43465246210048465E
:1017C00001F054FE5B4680221C611206384B0298E1
:1017D000009601F017FE320021002B00280001F0D6
:1017E00045FE5B4638001C6103F02EF80022324BA8
:1017F0000298009601F006FE320039002B00280006
:1018000001F034FE5B4638001C6103F01DF8002235
:101810002A4B0298009601F0F5FD320039002B00AA
:10182000280001F023FE5B4638001C6103F00CF831
:101830000022234B0298009601F0E4FD2B003200B9
:101840003900280001F012FE5B4638001C6102F0EE
:10185000FBFF049B013B0493A34200D06CE6FFF71F
:10186000B5F8C0460000F03F0000205011270000EE
:101870002815002006819441EC51B81E85EBE53F08
:10188000C00D96418B6CE7FBA9F1E63FFFB897418D
:10189000E5D022DBF97EE63F3E649941295C8FC2A8
:1018A000F528E83F7D0F9B41986E1283C0CAE53F43
:1018B0008162944184D79741022E9B41C382994112
:1018C0003CEF954124AB9A461A000020FD4901F0F7
:1018D00073FD032352460121062001F0C7FDFA4B98
:1018E00004251C61F94B01270493F94B029325ABA6
:1018F0009B4603239846DB1899465E460022F54B2B
:101900000298009601F07EFD2B003200390028007D
:10191000002401F0ABFDEC4B52469B461C61EE48A7
:10192000EE4901F049FD434652462100484601F088
:101930009DFD5B4680221C611206E94B02980096D1
:1019400001F060FD320021002B00280001F08EFD27
:101950005B4638001C6102F077FF5246E148E249DD
:1019600001F02AFD434652462100484601F07EFD23
:101970005B4680221C611206DC4B0298009601F047
:1019800041FD320021002B00280001F06FFD5B4675
:1019900038001C6102F058FF5246D548D54901F085
:1019A0000BFD434652462100484601F05FFD5B4671
:1019B00080221C611206D04B0298009601F022FD95
:1019C000320021002B00280001F050FD5B4638005A
:1019D0001C6102F039FF5246C848C94901F0ECFCCD
:1019E000434652462100484601F040FD5B468022B6
:1019F0001C611206C34B0298009601F003FD2B00F8
:101A000032002100280001F031FD5B4600221C61FC
:101A10000298BD4B009601F0F5FC320039002B0016
:101A2000280001F023FD5B4638001C6102F00CFF2A
:101A30000022B64B0298009601F0E4FC3200390017
:101A40002B00280001F012FD5B4638001C6102F0FB
:101A5000FBFE0022AE4B0298009601F0D3FC320050
:101A600039002B00280001F001FD5B4638001C61A5
:101A700002F0EAFE52469E489E4901F09DFC434614
:101A800052462100484601F0F1FC5B4680221C6171
:101A90001206994B0298009601F0B4FC2B0032001C
:101AA0002100280001F0E2FC5B4600221C61029844
:101AB000984B009601F0A6FC320039002B0028005C
:101AC00001F0D4FC5B4638001C6102F0BDFE5246BA
:101AD0008448854901F070FC43465246210048463F
:101AE00001F0C4FC5B4680221C6112067F4B029809
:101AF000009601F087FC320021002B00280001F045
:101B0000B5FC5B4638001C6102F09EFE52467248EE
:101B1000724901F051FC434652462100484601F00B
:101B2000A5FC5B4680221C6112066D4B0298009654
:101B300001F068FC320021002B00280001F096FC27
:101B40005B4638001C6102F07FFE524672487349C2
:101B500001F032FC434652462100484601F086FC23
:101B60005B4600221C610298694B009601F04AFC1A
:101B70002B0032003900280001F078FC5B468022FF
:101B80001C611206664B0298009601F03BFC320085
:101B900021002B00280001F069FC5B4638001C6125
:101BA00002F052FE0022594B0298009601F02AFCE6
:101BB000320039002B00280001F058FC5B46380049
:101BC0001C6102F041FE00224F4B0298009601F08A
:101BD00019FC320039002B00280001F047FC5B465D
:101BE00038001C6102F030FE52463B483B4901F090
:101BF000E3FB434652462100484601F037FC5B4672
:101C000080221C611206364B0298009601F0FAFB06
:101C1000320021002B00280001F028FC5B46380030
:101C20001C6102F011FE52463148324901F0C4FBFA
:101C3000434652462100484601F018FC5B4680228C
:101C40001C6112062C4B0298009601F0DBFB32005F
:101C500021002B00280001F009FC5B4638001C61C4
:101C600002F0F2FD00222A4B0298009601F0CAFB16
:101C70002B0032003900280001F0F8FB5B46524689
:101C80001C611548154901F097FB43465246210057
:101C9000484601F0EBFB5B4680221C611206104BAC
:101CA0000298009601F0AEFB320021002B002800C4
:101CB00001F0DCFB5B4638001C6102F0C5FD5246BA
:101CC00030E0C0460000F03F000020501127000027
:101CD0002815002006819441EC51B81E85EBE53FA4
:101CE000C00D96418B6CE7FBA9F1E63FFFB8974129
:101CF000E5D022DBF97EE63F3E649941295C8FC244
:101D0000F528E83F7D0F9B41452C964184D79741AC
:101D1000C3829941022E9B41986E1283C0CAE53F4F
:101D200081629441F348F44901F046FB4346524630
:101D30002100484601F09AFB5B4680221C61120696
:101D4000EE4B0298009601F05DFB320021002B0063
:101D5000280001F08BFB5B4638001C6102F074FD2B
:101D60005246E748E74901F027FB43465246210027
:101D7000484601F07BFB5B4680221C611206E24B69
:101D80000298009601F03EFB2B0032002100280053
:101D900001F06CFB5B4638001C6102F055FD049BB2
:101DA000013B0493A34200D0A8E5FEF70FFE24AB4D
:101DB0009A461A000020D54901F0FEFA0323524644
:101DC0000121062001F052FBD14B04241D61D14BAF
:101DD00001270493D04B029325AB9B4603239846DF
:101DE000DB185E469946AB465246C248C24901F0EE
:101DF000E3FA434652460021484601F037FB5B4672
:101E00008022C34D12062B610298BC4B009601F054
:101E1000F9FA230032000021200001F027FB5B4685
:101E200000222B610298BD4B009601F0EBFA3200C4
:101E300039002300200001F019FB5B4638002B61BC
:101E400002F002FD0022B64B0298009601F0DAFA89
:101E5000230032003900200001F008FB5B4680229D
:101E60002B611206AF4B0298009601F0CBFA2300CB
:101E700032000021200001F0F9FA5B4652462B6146
:101E8000A948AA4901F098FA52460021434648461B
:101E900001F0ECFA5B4638002B6102F0D5FC8022A1
:101EA000994B12060298009601F0ACFA230032001A
:101EB0000021200001F0DAFA5B4652462B6190487F
:101EC000904901F079FA524600214346484601F014
:101ED000CDFA5B4638002B6102F0B6FC0022944B31
:101EE0000298009601F08EFA23003200390020009B
:101EF00001F0BCFA5B4680222B6112068D4B0298E2
:101F0000009601F07FFA230032000021200001F04A
:101F1000ADFA5B4652462B618748884901F04CFA7E
:101F2000524600214346484601F0A0FA5B4638007D
:101F30002B6102F089FC8022814B120602980096E8
:101F400001F060FA230032000021200001F08EFA37
:101F50005B4652462B617B487B4901F02DFA524685
:101F600000214346484601F081FA5B4638002B6168
:101F700002F06AFC0022754B0298009601F042FACA
:101F8000230032003900200001F070FA5B46802205
:101F90002B611206674B0298009601F033FA23007A
:101FA00032000021200001F061FA5B4652462B61AD
:101FB0006148624901F000FA524600214346484612
:101FC00001F054FA5B4638002B6102F03DFC8022A0
:101FD0004A4B12060298009601F014FA23003200D0
:101FE0000021200001F042FA5B4652462B61414835
:101FF000414901F0E1F9524600214346484601F0CB
:1020000035FA5B4638002B6102F01EFC80224C4BF7
:1020100012060298009601F0F5F923003200002123
:10202000200001F023FA5B4652462B6145484649A1
:1020300001F0C2F9524600214346484601F016FA23
:102040005B4638002B6102F0FFFB0022404B0298F8
:10205000009601F0D7F9230032003900200001F08A
:1020600005FA5B4680222B6112062E4B02980096E1
:1020700001F0C8F9230032000021200001F0F6F938
:102080005B4652462B612848284901F095F9524693
:1020900000214346484601F0E9F95B4638002B61D0
:1020A00002F0D2FB8022184B12060298009601F033
:1020B000A9F9230032000021200001F0D7F95B4686
:1020C00052462B610E480F4901F076F943465246BD
:1020D0000021484601F0CAF95B4638002B6102F046
:1020E000B3FB049B013B0493002B00D07CE6FEF77E
:1020F0006DFCC0468B6CE7FBA9F1E63FFFB897414A
:10210000E5D022DBF97EE63F3E6499410000F03FD6
:10211000000020501127000028150020022E9B41AE
:10212000C3829941C00D9641EC51B81E85EBE53F45
:1021300084D7974181629441986E1283C0CAE53F6B
:102140007D0F9B41295C8FC2F528E83F452C9641C5
:102150000681944124AB9A461A0000208A4901F076
:102160002BF9032352460121062001F07FF9874B0A
:10217000874E1C61874B25AAB146140056469846E7
:1021800032008548854901F017F903233200002108
:102190000620002701F06AF980227C4D804B2F61D8
:1021A00012064046009401F02DF90423220000217C
:1021B000042001F05BF900227A4B2F614046009425
:1021C00001F020F9042322000121042001F04EF93E
:1021D00001202F6102F038FB32007348734901F08F
:1021E000EBF8032332000021062001F03FF98022A2
:1021F0006F4B2F6112064046009401F003F904234F
:1022000022000021042001F031F901202F6102F0A9
:102210001BFB32006748684901F0CEF80323320007
:102220000021062001F022F98022644B2F61120662
:102230004046009401F0E6F8042322000021042027
:1022400001F014F901202F6102F0FEFA32005C481F
:102250005C4901F0B1F8032332000021062001F0AF
:1022600005F98022584B2F6112064046009401F078
:10227000C9F8042322000021042001F0F7F801200E
:102280002F6102F0E1FA8022504B12064046009482
:1022900001F0B8F8042322000021042001F0E6F840
:1022A00032004B484B492F6101F086F8032332007E
:1022B0000021062001F0DAF801202F6102F0C4FAB3
:1022C00032003C483C4901F077F8032332000021FA
:1022D000062001F0CBF88022384B2F6112064046D1
:1022E000009401F08FF8042322000021042001F063
:1022F000BDF80022384B2F614046009401F082F86F
:10230000042322000121042001F0B0F801202F61F4
:1023100002F09AFA0022314B4046009401F072F824
:10232000042322000121042001F0A0F801202F61E4
:1023300002F08AFA00222A4B4046009401F062F82B
:10234000042322000121042001F090F801202F61D4
:1023500002F07AFA0022234B4046009401F052F832
:10236000042322000121042001F080F801202F61C4
:1023700002F06AFA01235B429C46E1444B46002B83
:1023800000D0FDE6FEF722FB0000F03F00002050E9
:102390001127000028150020986E1283C0CAE53F5F
:1023A0008162944106819441EC51B81E85EBE53F72
:1023B000C00D96418B6CE7FBA9F1E63FFFB8974152
:1023C000E5D022DBF97EE63F3E6499417D0F9B41DB
:1023D000295C8FC2F528E83F452C964184D7974168
:1023E000C3829941022E9B4124AB9A461A000020D9
:1023F000C94900F0E1FF032352460121062001F004
:1024000035F8C64BC64E1C61C64B25AAB046150012
:102410001E00C24F0022C44B3000009500F0F2FFB6
:1024200004232A000121042001F020F801203C614E
:1024300002F00AFA5246BD48BD4900F0BDFF032331
:1024400052460021062001F011F88022B94B3C6170
:1024500012063000009500F0D5FF04232A00002169
:10246000042001F003F801203C6102F0EDF952462E
:10247000B148B24900F0A0FF0323524600210620D4
:1024800000F0F4FF8022AE4B3C6112063000009554
:1024900000F0B8FF04232A000021042000F0E6FF2A
:1024A00001203C6102F0D0F95246A648A64900F04E
:1024B00083FF032352460021062000F0D7FF80222D
:1024C000A24B3C6112063000009500F09BFF0423F4
:1024D0002A000021042000F0C9FF01203C6102F025
:1024E000B3F952469A489B4900F066FF03235246CF
:1024F0000021062000F0BAFF8022974B3C611206B3
:102500003000009500F07EFF04232A000021042003
:1025100000F0ACFF01203C6102F096F90022824BF2
:102520003000009500F06EFF04232A0001210420F2
:1025300000F09CFF01203C6102F086F90022874BED
:102540003000009500F05EFF04232A0001210420E2
:1025500000F08CFF01203C6102F076F90022804BF4
:102560003000009500F04EFF04232A0001210420D2
:1025700000F07CFF01203C6102F066F90022794BFB
:102580003000009500F03EFF04232A0001210420C2
:1025900000F06CFF01203C6102F056F90022724B02
:1025A0003000009500F02EFF04232A0001210420B2
:1025B00000F05CFF01203C6102F046F952466148A0
:1025C000614900F0F9FE032352460021062000F085
:1025D0004DFF80225D4B3C6112063000009500F0FB
:1025E00011FF04232A000021042000F03FFF0120F6
:1025F0003C6102F029F952464F48504900F0DCFE98
:10260000032352460021062000F030FF80224C4B6D
:102610003C6112063000009500F0F4FE04232A000D
:102620000021042000F022FF01203C6102F00CF99F
:1026300052463E483E4900F0BFFE03235246002169
:10264000062000F013FF80223A4B3C611206300056
:10265000009500F0D7FE04232A000021042000F09A
:1026600005FF01203C6102F0EFF852463F48404927
:1026700000F0A2FE032352460021062000F0F6FEE1
:1026800080223C4B3C6112063000009500F0BAFEFF
:1026900004232A000021042000F0E8FE01203C6110
:1026A00002F0D2F800222F4B3000009500F0AAFE75
:1026B00004232A000121042000F0D8FE01203C61FF
:1026C00002F0C2F80022264B3000009500F09AFE7E
:1026D00004232A000121042000F0C8FE01203C61EF
:1026E00002F0B2F800221D4B3000009500F08AFE87
:1026F00004232A000121042000F0B8FE01203C61DF
:1027000002F0A2F801235B429C46E0444346002BC2
:1027100000D07EE6FEF75AF90000F03F000020509E
:10272000112700002815002006819441EC51B81EA5
:1027300085EBE53FC00D96418B6CE7FBA9F1E63FC9
:10274000FFB89741E5D022DBF97EE63F3E64994130
:10275000295C8FC2F528E83F7D0F9B41452C9641AF
:1027600084D79741C3829941022E9B41986E128370
:10277000C0CAE53F8162944124AB9A461A0000200A
:10278000FD4900F019FE210003235246062000F007
:102790006DFEFA4B00221C6100200023F84904F072
:1027A00016FE0022002304F030FE02000B0004009D
:1027B0000D0004F0FAFD04F0E5FEF24AF24B061CAF
:1027C0002900200004F0F1FD04F0DCFEEF4905F0E3
:1027D000C5FAEF4905F0C5FA00218346081C05F04B
:1027E000C0FA0021041C584605F0CFFA011C301C29
:1027F00005F0B1FA002105F0B4FA0021051C201CF7
:1028000005F0C3FA011C002005F0A5FA071C011C05
:10281000002005F0A6FA00218046281C05F0B5FA34
:10282000011C301C05F097FA391C05F09AFA434652
:10283000071C00214046079305F0A7FA011C002061
:1028400005F089FA8046011C002005F08AFA002173
:102850008146381C05F099FA011C301C05F07BFA02
:10286000414605F07EFA4A468046002148460892D5
:1028700005F08BFA011C002005F06DFA8146011C61
:10288000002005F06EFA00210290404605F07DFA26
:10289000011C301C05F05FFA494605F062FA002180
:1028A0008146029805F071FA011C002005F053FAE8
:1028B00000210490484605F068FA011C301C05F020
:1028C0004AFA049905F04DFA0499061C002005F017
:1028D00048FA002105F059FA011C301C05F03BFABA
:1028E000029905F052FA011C484605F034FA08999D
:1028F00005F04BFA011C404605F02DFA079905F04A
:1029000044FA011C381C05F026FA211C05F03DFA9A
:10291000011C281C05F01FFA80210906804605F0DD
:1029200034FA011C584605F016FA81460A9005F063
:1029300073FA0600201C0F0005F06EFA32003B000F
:10294000029003913000390004F038FD0400404645
:102950000D0005F061FA02000B002000290004F0D0
:102960002DFD0022002304F050FD0022844B04F0D2
:102970002EFD02000B000298039904F016FD04F0EE
:1029800001FE49460B90404605F0E5F9002105F0AF
:10299000E8F980491890484605F0F7F9011C7E488F
:1029A00005F0D9F980460C9005F036FA02000B00CC
:1029B00004000D0004F002FD32003B0004F0FEFCB8
:1029C0000022764B04F021FD00226D4B04F0FFFC49
:1029D000020080200B008005714904F0E6FC04F041
:1029E000D1FD41460D90484605F0B5F96D4905F019
:1029F000B8F96D491990404605F0C7F9011C6B48BC
:102A000005F0A9F981460E9005F006FA02000B00C8
:102A100006000F0004F0D2FC22002B0004F0CEFCD4
:102A20000022634B04F0F1FC0022554B04F0CFFC74
:102A3000020080200B0080055E4904F0B6FC04F023
:102A4000A1FD49460F90404605F085F95A4905F029
:102A500088F95A491A90484605F097F9011C5848D8
:102A600005F079F98046109005F0D6F902000B00C8
:102A700004000D0004F0A2FC32003B0004F09EFCB8
:102A800000224B4B04F0C1FC00223D4B04F09FFCA4
:102A90000200A0200B0000064A4904F086FC04F066
:102AA00071FD41461190484605F055F9424905F03F
:102AB00058F945491B90404605F067F9011C434809
:102AC00005F049F98146129005F0A6F902000B00C5
:102AD00006000F0004F072FC22002B0004F06EFCD4
:102AE0000022334B04F091FC0022254B04F06FFCD4
:102AF00002000B000020364904F057FC04F042FDB0
:102B000049461390404605F026F92B4905F029F96E
:102B1000FA211C908905484605F037F9011C2D481B
:102B200005F019F98046149005F076F902000B00C3
:102B300004000D0004F042FC32003B0004F03EFCB7
:102B400000221B4B04F061FC00220D4B04F03FFC03
:102B50000200A0200B0000061F4904F026FC04F030
:102B600011FD41461590484605F0F5F8124905F06B
:102B7000F8F84646002131E00000E03F0000205018
:102B8000000008400C34BF0CC4F1963F6CE2C13C1D
:102B9000EF8E31C3D8C7063FB4F34D3900205EC075
:102BA000B0977E3F00C0B4C3C52F893EC6D1893AD5
:102BB00000001C40E17A943F0000A8419224893E25
:102BC00018DFCF3AD4417D3F8988883E95FEAEBA62
:102BD000E0236DBF4918203A74717B3F1D90301C73
:102BE00005F0D3F8011C002005F0B5F8071C16907D
:102BF00005F012F902000B0004F0E0FB22002B00AC
:102C000004F0DCFB0022CD4B04F0FFFB0022CC4B98
:102C100004F0DDFB020080200B00C005C94904F070
:102C2000C4FB04F0AFFC391C1790301C05F093F87E
:102C3000C54905F096F8C54BC926029325AB9B46BE
:102C4000C34B37001F93534609935B461E90209356
:102C500055261F9BB0469A46099B21979B46209B71
:102C600099467CE0BB49201C05F0CEF8002806D030
:102C7000B949201C05F0C0F8002800D0CBE0B649C7
:102C8000201C05F0C1F8002806D0B449201C05F02E
:102C9000B3F8002800D0C6E0B049201C05F0B4F815
:102CA000002806D0AE49201C05F0A6F8002800D068
:102CB000E0E0AB49201C05F0A7F8002806D0A949A0
:102CC000201C05F099F8002800D0DBE0A549201C65
:102CD00005F09AF8002806D00021201C05F08CF899
:102CE000002800D0BEE00021201C05F08DF800284F
:102CF00006D00021201C05F077F8002800D0C9E09C
:102D0000994805F0CFF9002600273B0032005046D5
:102D100005F0BAFA5A463000390000F04DFB0323A3
:102D20005A460021062000F0A1FB00254B468F4C9F
:102D3000029825610093049A059B00F063FB04232D
:102D40004A460021042000F091FB0320256101F098
:102D50007BFD01239C46E0444346792B6BD04046E3
:102D600004F0BCFB0022824B04F028FB0022814BC4
:102D700004000D0004F049FB049005912000290097
:102D800004F000FC7C49041C05F03EF8002800D14A
:102D900068E77049201C05F02FF8002800D161E792
:102DA000169B1E9F0893179B744E73490793201C14
:102DB00004F0D1FF0799051C04F0E7FF311C04F073
:102DC000CDFF0899061C281C04F0DFFF291C04F025
:102DD000DCFF011C301C04F0C1FF391C061C281C40
:102DE00004F0D3FF291C04F0D0FF291C04F0CDFF10
:102DF000011C301C04F0B2FF05F00EF80600201C88
:102E00000F0005F009F80096019702000B005C48DE
:102E100005F03AFA79E7149B1D9F0893159B594ECC
:102E20004C490793C3E7129B1C9F0893139B564E74
:102E300049490793BBE7099E219F320000200021EA
:102E400000F0BAFA032332000021062000F00EFB46
:102E5000013F0120256101F0F7FC002F00D0F7E6CB
:102E6000FDF7B4FD0C9B199F08930D9B474E3D4900
:102E700007939CE7109B1B9F0893119B444E374977
:102E8000079394E70E9B1A9F08930F9B414E34497A
:102E900007938CE700260A9B189F08930B9B311C15
:102EA000079384E724AA00203B4900F085FA060036
:102EB0000F002E4D03232100062024AA00F0D6FA8D
:102EC0003000390024AA2C6100F076FA0323012196
:102ED000062024AA00F0CAFA80221C4925AB2C61E6
:102EE0001206009308002D4B884600F08BFA04234D
:102EF00006000F001800210025AA00F0B7FA25AB44
:102F000032002C61404600933B0000F07BFA042322
:102F100006000F001800012125AA00F0A7FA204B97
:102F20002C611B78002B01D1FDF796FD32003B0090
:102F30001C4805F0A9F9FDF78FFDC04600001C40B4
:102F4000000008405262503F0000A84128150020B0
:102F500064B100100000B9420000C7420000D54231
:102F60000000E3420000F142F8AE001000002050E3
:102F70000000E03F80842E410000AB4204562E3F0B
:102F800030AF0010C520303F68223C3F6666663F88
:102F90008FC2353F5C8F423F0000F03FFFB8974142
:102FA000F80F002000B1001024AB9A461A00904898
:102FB000904900F001FA032352460021062000F058
:102FC00055FA80228C4D25AE8C4B2C611206009652
:102FD0008B4800F017FA04235746320000211800EE
:102FE000884E00F043FA2C610124200004F076FAA8
:102FF000854A864B04F009FA7E4B7D4A04F0DEF9DF
:103000003A0000F0D9F9032306203A00002100F02D
:103010002DFA0023013401202B6101F015FC332C23
:10302000E3D1013E002EDFD1002203231100062050
:1030300000F01CFA2E61FDF7C9FC754BB2889A426C
:1030400001D0FDF704FC24AB9A4600241A00714815
:10305000714900F0B1F9032352462100062000F027
:1030600005FA654B6D4F1C61654B25AAB946934621
:10307000574698463A006A486A4900F09DF903238A
:103080003A000021062000F0F1F900255B4680227D
:10309000594C1206256140460093584B00F0B2F996
:1030A00004235A460021042000F0E0F925610024A1
:1030B000012001F0C9FB3A000020002100F07CF95A
:1030C00003233A000021062000F0D0F900265B46D9
:1030D000494D00222E6140460093002300F092F9F2
:1030E000013404235A460021042000F0BFF92E6168
:1030F000062C23D0012C39D0022C53D0032C64D0C1
:103100005B46802200931206042C20D0464B40469A
:1031100000F078F95A4600210420042300F0A6F9B3
:103120003A00424842492E6100F046F903233A0032
:103130000021062000F09AF92E61B9E701235B42D5
:103140009C46E1444B46002B94D1FDF73FFC394BA4
:10315000404600F057F95A4600210420042300F0AD
:1031600085F93A00344835492E61DDE73A003448A4
:10317000344900F021F903233A000021062000F031
:1031800075F95B4680222E6100932F4B1206404654
:1031900000F038F904235A460021042000F066F9B3
:1031A0002E6185E75B46802200931206274B40463E
:1031B00000F028F95A4600210420042300F056F9B3
:1031C0003A00234823492E61AEE73A0022482349BA
:1031D00000F0F2F803233A000021062000F046F93F
:1031E0005B4680222E61120600931D4BCFE7C0463E
:1031F000CDCCCCCCCCCCE43F0000205081629441BB
:1032000028150020E7030000FCA9F1D24D62503FD1
:103210006F6D00009A9999999999E13F3075000076
:10322000986E1283C0CAE53FBCBA9C417B14AE477E
:10323000E17AEC3F7D0F9B41295C8FC2F528E83F86
:10324000EC51B81E85EBE53FC00D9641FFB89741A4
:103250008B6CE7FBA9F1E63FE5D022DBF97EE63F88
:103260003E64994110B5192086B000F02DFCD023A2
:1032700080221B0692045A629A615A6105F010F886
:103280003D4805AB04AA03A900F0FEFA00286DD161
:10329000002301220621152002F0C0F8374B384CDC
:1032A000012200930021062001F0A2FE20003549F2
:1032B00007F032FA0222344963680A602168134039
:1032C00005325140C8320A4030490C200A60304A69
:1032D0000121136000F0E0FB01210E2000F0DCFB77
:1032E00001210F2000F0D8FB2A4807F0E9F907F088
:1032F00097F9294800F08AFF284800F087FFFDF77A
:103300000DF9012007F02EFCA021C9058C46244BA5
:10331000244A1860C3021340234A24491A438301F4
:103320006344196022490A205960002199601A619A
:1033300000F0CAFBD02480232406DB00636209204E
:10334000A36100F0C1FB80239B006362A361194C61
:1033500000232000094A00F00BFA0421200000F0AD
:10336000E1F9FDF7D7F9FDF703FAFCE7059A0499AF
:10337000039800F04DFA8BE748E8010040597307C5
:103380000000044000E1F505043004400010044052
:103390000420044055030010A8F30320E4F30320A5
:1033A000C8F30320F17F00FF1900040050A403209C
:1033B000100030502815002010B50F4B14000022CB
:1033C00004F023F804F036F904F0C4F8002800D122
:1033D00001308023DB00984200D3084800231022EC
:1033E0002370030A13436370A07004F073F8002283
:1033F000034B03F0ECFF10BD00009040FF03000002
:1034000000F88F40F8B50400806816001F0004F033
:1034100061F82268636803F0F8FF0D0004003900CA
:10342000300000220F4B03F0F0FF2B00220003F0CE
:10343000CEFF04F0FFF804F08DF8069A030E137027
:1034400003021B0E537003041B0E9370D07004F024
:1034500041F82B00220003F0D8FF0022024B03F0BA
:10346000D4FFF8BD0000F0410000F03DF0B585B09C
:103470001E006B461500DF1D6A46D871002301202F
:103480000431137388400223094C1843507303A975
:103490000222200007F000FD39000122200007F081
:1034A000FBFC32002900200007F0F6FC05B0F0BD5F
:1034B00000000440F0B5DE4657464E464546E0B5AE
:1034C000894991B0894807F0CFF980230AAF0BAC46
:1034D000012239003B70854807F0DEFC0123220001
:1034E0000021824807F088FC2178814804F0CCFE56
:1034F0008123012239003B707C4807F0CDFC032377
:1035000022000021794807F077FCA37862782178BF
:10351000784804F0B9FE8223012239003B707348D9
:1035200007F0BAFC022322000021704807F064FC77
:1035300062782178704804F0A7FE704B0F259B46F7
:1035400006AB9C4600266E4B65449A466D4B9946E9
:103550006D4B98466D4B03936D4B04936D4B0593E8
:103560006D4B06936D4B07933100584604F08CFE6B
:10357000002301223B70331D9A40130002221343A3
:10358000390002227B70594807F086FC8323012210
:1035900029002B70554807F07FFC032322000021EF
:1035A000524807F029FCA37862782178504604F04D
:1035B0006BFE8423012229002B704C4807F06CFC21
:1035C000042322000021494807F016FCE078A37884
:1035D000627821780090484604F056FE8523012247
:1035E00029002B70414807F057FC022322000021DC
:1035F0003E4807F001FC62782178404604F044FE22
:103600008623012229002B70384807F045FC03234C
:1036100022000021354807F0EFFBA378627821787B
:10362000039804F031FE8723012229002B702F48D4
:1036300007F032FC0223220000212C4807F0DCFBBB
:1036400062782178049804F01FFE88230122290063
:103650002B70264807F020FC042322000021234879
:1036600007F0CAFBE078A37862782178009005988B
:1036700004F00AFE8923012229002B701B4807F061
:103680000BFC042322000021184807F0B5FBE0786A
:10369000A378627821780090069804F0F5FD8A23DB
:1036A000012229002B70114807F0F6FB04232200A9
:1036B00000210E4807F0A0FBE078A378627821781B
:1036C00001360090079804F0DFFD042E00D04BE790
:1036D0001349064807F0C8F811B0F0BCBB46B24623
:1036E000A946A046F0BDC04640420F00000004407D
:1036F00028B2001034B200104CB2001060B20010BA
:1037000070B2001088B20010A4B20010B8B200105D
:10371000D0B20010E4B2001000B300101CB30010CF
:1037200000E1F50530B5050083B0816008000C00AC
:1037300003F0D0FE2A686B6803F067FE80220A4B14
:10374000120603F0ABFE431E9841012301A90B7042
:103750000023A400C00120434870042203484B808A
:1037600007F09AFB03B030BDFB65AE41000004409A
:1037700010B519000400100003F0F8FE206061602D
:1037800010BDC04670B582B06B469E1CF2233370EC
:103790000023104D01AC237021000122280007F006
:1037A0007BFB31000122280007F076FB0A4B280042
:1037B0001A8822809B780122A3706B46D91C0323B0
:1037C0000B7007F069FB03222100280007F064FB5F
:1037D00002B070BD0000044038B3001030B58BB0AB
:1037E00069460A00084B31CB31C231CB31C231CBF3
:1037F00031C2188810809B7804489370272207F004
:103800004BFB0BB030BDC0463CB300100000044081
:10381000F0B583B005000E00140000F073F9002825
:1038200001D003B0F0BD154F01223B0001210097EC
:10383000053001F0DDFB33002A000094012110481F
:1038400001F016FE21002800714303F073FB040011
:103850000C4B002200930221042001F0C9FB23003D
:10386000002201210094052001F0C2FB3B0002224E
:1038700000210097062001F0BBFBD2E7006CDC02C0
:1038800000800240001BB700F0B54E4691467D4ACD
:1038900045469046A0225746DE465200E0B5170046
:1038A000424606008A4683B000920193009B764A06
:1038B000934209D9754A009B9446013F63440093A3
:1038C0000F2FF3D100206EE01D00714B31219C467B
:1038D0006544280003F02EFB864200D1BCE007249B
:1038E000631EB8469B4637002E005D466543300098
:1038F000290003F01FFB874246D0A31E9B46022CE3
:1039000000D1ADE02D1B2900300003F013FB8742EE
:1039100050D0E31E9B46032C52D02D1B29003000B3
:1039200003F008FB874253D0231F9B46042C55D03D
:103930002D1B2900300003F0FDFA874259D0631F88
:103940009B46052C5BD02D1B2900300003F0F2FABA
:1039500087425CD0062C5ED03000E91F03F0EAFA03
:10396000B84263D0242130000624242503F0E2FA73
:10397000874261D005239B465D46654330002900A0
:1039800003F0D8FA8742B8D10029B6D15D46D346B4
:10399000C246019B52463F49012051435A4611609D
:1039A0004A4614601D6003B0F0BCBB46B246A9464F
:1039B000A046F0BD0029E9D0E31E9B46032CACD104
:1039C00002240425B3089F4236D001239B468CE78E
:1039D0000029DBD0231F9B46042CA9D109213000EC
:1039E0000324092503F0A6FA874225D002239B462B
:1039F0007BE70029CAD0631F9B46052CA3D1042472
:103A0000102533099F4217D003239B466DE70029F9
:103A1000BCD0062CA0D1192130000524192503F0B3
:103A200089FA874208D004239B465EE7002923D009
:103A3000052306249B4658E7AB4635003E00474623
:103A40005946280003F076FA002900D048E7D3460B
:103A50002500BA46019B9DE7312307249B46EFE7EB
:103A600035003E004746B54200D023E7D346012447
:103A7000C2460125019B8DE7D3460724C246012596
:103A8000019B87E750262F0050F80C0020D1FFFF44
:103A9000B0710B00001BB700094A10B594464024D2
:103AA000830063441A68C00062408034144080225E
:103AB000520113431C60034B9C466044416010BD9F
:103AC00004C00140004001400123D022834012067F
:103AD00093629361094A40219446830063441A68C3
:103AE000C0004A40803111408022520113431960C6
:103AF000034B9C46052360444360704704C001406B
:103B000000400140024B18688007C00F7047C04654
:103B100000C00640EFF3108072B6034A1368002B12
:103B2000FCD0BFF35F8F70472C0100D0BFF35F8FD5
:103B30000022024B1A6080F3108870472C0100D0DD
:103B400070B5EFF3108C72B60D4D2B68002BFCD0C6
:103B5000BFF35F8F0724CB08C618C05C01230C405D
:103B6000A3401C000440034207D118433070BFF348
:103B70005F8F2C608CF3108870BD100001F0AEFDDB
:103B80002C0100D0F8B54746CE46884680B5EFF305
:103B9000108C72B6214D2C68002CFCD0BFF35F8FC7
:103BA0009A422CD8D4080727055D0619012417402E
:103BB000BC402C421FD007210127894609E0D408C8
:103BC000055D06194C4639001440A1400C002942FD
:103BD00011D001329342F2D201204042BFF35F8FF5
:103BE00000220E4B1A608CF3108800280FDBC0BC3B
:103BF000B946B046F8BD254310003570EEE7BFF377
:103C00005F8F00232B608CF31088012040424346D5
:103C1000002BECD0089801F061FDC0462C0100D0CB
:103C20000021044B044ABFF35F8F02C39342FAD1D1
:103C30007047C046000100D0800100D0044A1078CF
:103C4000431CDBB2172B00D9102313707047C046FA
:103C5000F90F002010B5064B064C82B0010000930E
:103C600018221F232000FFF78DFF02B010BDC046B1
:103C700064B30010F81D002001238340002904D004
:103C8000034A1360034A13607047034A1360FBE75B
:103C900080E200E000E100E080E100E001228240FB
:103CA000034B1B6813405A1E9341D8B27047C0465D
:103CB00000E100E001238340014A13607047C046E1
:103CC00000E200E0084B10309B688000C358002BD6
:103CD00007D0064A00209B1A2F229A424041C0B2C8
:103CE00070470020FCE7C04600ED00E0FC0F00201C
:103CF000024B10309B688000C058704700ED00E018
:103D000070B50D00EFF3108672B60F4A1368002BE2
:103D1000FCD0BFF35F8F0D4B10309B6884001B59A4
:103D20000B4A934203D09D4201D001F0EFFC074BB8
:103D30009B681D51BFF35F8FBFF35F8F0022024B63
:103D40001A6086F3108870BD240100D000ED00E0F9
:103D5000CD010010F0B54E464546DE465746E0B56B
:103D600083B0060000919046EFF3108B72B6654A5F
:103D70001368002BFCD0BFF35F8F0025624B5D57AB
:103D80009A46002D00DA79E052466B005F4C5F19CD
:103D9000BF000193E31999469B79103613705C4B71
:103DA000B6009B6899590B1B2F2B33D9594B99425D
:103DB00000D07CE0019B02379C46574B6544AD0028
:103DC0006353564BE719043BDB1B554A1B055B0D40
:103DD000651913436B80534B0121AB80FF23AB71FB
:103DE0004346EB71009BAB604B460B431900484BBD
:103DF0009B689951BFF35F8FBFF35F8F0022414BE8
:103E00001A608BF3108803B0F0BCBB46B246A946DB
:103E1000A046F0BD01200A008243D379434549D929
:103E2000BC464746884607E05800C0188000201866
:103E3000C179B94228D902000623D356002BF3DA00
:103E40009A46131D9C464146B846374F484663463E
:103E50000438C01A0005324B400D1843019B908076
:103E600095715A1953469200A418A37143462F4ADC
:103E7000E371009B2260A780A360B8E701F046FCD5
:103E8000002553465D577FE79A464146131DB846C5
:103E900067469C469088043740050015E719604442
:103EA000C01BE0270005400D3F020743CEE701F0AD
:103EB0002DFC7FE713001E491B1B5B415943090D75
:103EC000154BBD1CE353154B6519043B5B1B1B05D0
:103ED000134D5B0D2B43AC464D466B806546043756
:103EE000131FE719DB1B1B055B0D1D434B46997127
:103EF0004146D97100999D80996049460B4B014319
:103F0000136074E7240100D0F2F30320FC0F0020BB
:103F100000ED00E0CD01001000A1FFFF2C100020FB
:103F200000E0FFFF01BDFFFF01BD00000148804729
:103F3000AAAA0000F0B5DE4657464E464546E0B513
:103F40000C0083B0EFF3108872B65D4A1368002B43
:103F5000FCD0BFF35F8F5B4B5B499A680300103363
:103F60009F00D5598D4239D0A5424AD0574EAA1B41
:103F70002F2A33D801229246824091464846544A1D
:103F80001268104001904846524A1060BFF35F8F9C
:103F9000EFF305829346002A35D0934201D001F019
:103FA000B5FB2A0053469A439068844208D175E0D5
:103FB0004B005B189B00F3189868A04234D01A009D
:103FC000062151560029F3DA844253D0019B002B7D
:103FD00026D04A46404B1A603D4B1A60394B9B68CD
:103FE000DD51BFF35F8FBFF35F8F0022344B1A6048
:103FF00088F3108803B0F0BCBB46B246A946A04681
:10400000F0BD0D00EAE72A0053469A4390688442C7
:10401000D6D1062010561300002809DA0D0031E031
:104020004A462C4B1A60D9E706201856002822DB96
:1040300042001118890074188A46A1689960E179D4
:10404000D971062161569971002925DBA488F11ADE
:104050006405241554440919E0240905490D240276
:104060002143998013181D4A9B001178F318997108
:104070001070ABE713005946002914D1FF3191713C
:104080001749918015490A789A71164A9B1B5B4122
:104090005A43120D0A7099E71349E2E706201056B9
:1040A00013000028C4DA114A1149D21A083A500202
:1040B000400D014399800F4952080A43DA8085E791
:1040C000240100D000ED00E0CD010010FC0F002025
:1040D00000E100E080E100E080E200E0F2F3032094
:1040E00001BDFFFFAAAA000001BD0000361000209C
:1040F00000F0FFFF00F8FFFF70B5EFF3058101242A
:104100000443EFF3108C72B6214A1368002BFCD0E5
:10411000BFF35F8F1F4B05001F4AED1A6D416A43C5
:10412000120D1E4D8900AE6852B27658A6421CD0C0
:104130000621595691421CD012215956914222D043
:104140001E215956914220D02A21595603249142CA
:1041500010D0134B19781A708171BFF35F8F002252
:104160000B4B1A608CF3108870BDAB680D4C5C5023
:10417000EFE700246100091989005B18FF2199719C
:1041800009499980E5E70124F4E70224F2E7C046F3
:10419000240100D0FC0F0020AAAA000000ED00E0DE
:1041A000F2F30320CD01001001BDFFFF054B064ACD
:1041B0001360064A136053609360D36013615361C8
:1041C000936170478080808000E400E004E400E0B8
:1041D00010B5084B084C82B0010000930022052363
:1041E0002000FFF7CFFC002801DB1F23181A02B0C4
:1041F00010BDC04680B30010F8F30320024B9C466C
:1042000061448900016070474000003410B504002B
:10421000FFF714FD01002000FFF7F0FFFF232371DB
:10422000BFF35F8F10BDC04610B50400FFF706FD59
:1042300001002000FFF7E2FFFF23A380BFF35F8FA1
:1042400010BDC04610B504000120FFF703FD034B6D
:10425000C3189B002360BFF35F8F10BD4000003484
:10426000034B9C46614489000160BFF35F8F704738
:104270004000003483680B4810B5844661446244B2
:104280001201090159189B185C684A680120944280
:1042900001D802D00020C0B210BD1A680B689A4243
:1042A000F9D8F7E7FFFFFF0F0A4B1968EFF310800B
:1042B00072B60A68002AFCD0BFF35F8F1B68BFF399
:1042C0005F8F00221A6080F3108840BF0020002119
:1042D0007047C046A0F30320F8B5574645464E4602
:1042E000DE46E0B598460CAB1C780DAB1B7807009A
:1042F00091469A460568002C5AD1AC7B002C3BD0E5
:10430000660029683619033E89194B78AB73002B78
:1043100000D1EB7300238B704B700B702B4BE218AA
:10432000BB6812019B184A461A6042465A600A9AB4
:104330009A600B9ADA6000238B704B700B706B7B6A
:104340009B46002B27D022006B685946A8689847E7
:104350005B465B005B442A68033B002812D058464A
:104360009619B070D118D35C002B00D073705B46E7
:104370000C706B735C450FD0F0BCBB46B246A946CF
:10438000A046F8BDD3189C709119925D002A00D008
:104390005A705B460B706C734A464346387D00F09A
:1043A000D3FB051E0AD10E9B002BE5D01D70E3E761
:1043B000660029683619033E8919AFE75346002B7A
:1043C000F1D12100386800F0D7FDECE7FFFFFF0FC7
:1043D000F0B5DE4657464E4645460023E0B58BB065
:1043E0000893684B8200D45800239B46099000F044
:1043F00017FB02000B006068EFF3108A72B6564696
:1044000001680029FCD0B246BFF35F8F21684F7B63
:104410008C46002F2ED0A5685B49A9467918090162
:10442000894449460868496805000E00AD1A9E4156
:10443000002E5FDD02000B00099800F085FB0023D1
:10444000002299460023069207930023984663684A
:10445000BFF35F8F5A461A608AF310884346002BD9
:1044600012D10028C3D10BB0F0BCBB46B246A9465E
:10447000A046F0BD00230022994600230692079330
:10448000002300209846E2E7089B4946180238437B
:10449000C047626805000E00EFF3108A72B6136819
:1044A000002BFCD0BFF35F8F002E41DB2B0033438A
:1044B00002D02369002B56D12368D97B002905D06F
:1044C0001A68480041185218033A57709A7B002A1C
:1044D00000D19F73DF73E268013FD35D0133D35591
:1044E0005B4623616368BFF35F8F5A461A608AF3A5
:1044F00010887CE7002E02D1002D00D09AE7002121
:10450000604600F0B7FC4B461A685B68069207935A
:104510004B469B6898464B46DB689946E368DB1937
:10452000013B1B7808931B020343236100208EE7A5
:104530002369002BC0D0069A079B8021521BB341F0
:1045400009068B4202D30122104B524200210491F2
:1045500001310391494601914146200002970091A3
:10456000FFF7BAFEBCE700F05BFA2A00330012182E
:104570004B41802109068B42E8D30122034B524272
:10458000E4E7C04684F20320FFFFFF0FFFFFFF7F39
:1045900010B5144C6368002B04D00A211248FFF7B1
:1045A0002DFE10BD2300114A1021206800F07EFB73
:1045B000032000F029FA032000F02EFB03200C4911
:1045C00000F07CFAFFF73AFB0A4B9C460323237565
:1045D000D0231B061B6860446375074B8000606036
:1045E000DC60DAE744100020A0F3032075420010DD
:1045F000D14300104000003484F20320004870478B
:1046000044100020F0B557464E464546DE46E0B51C
:1046100085B0019310AB1B780600039300239A46E4
:10462000984600927268EFF3108B72B61368002BF5
:10463000FCD0BFF35F8F3568AC7B002C00D16EE0FF
:1046400067002B683F19033FDB195A78AA73002AC9
:1046500000D1EA73484AA118B268090152180098BB
:104660000199106051600E9991600F99D160424696
:104670009A705A701A706B7B9946002B00D16BE0D0
:1046800022006B684946A86898474B465B004B443C
:104690002A68033B002856D04846D719B870D1186D
:1046A000D35C002B00D07B704B460C706B734C4579
:1046B00053D0F3681B19013B18787368BFF35F8F01
:1046C00042461A608BF310885346002B08D1000233
:1046D000204305B0F0BCBB46B246A946A046F0BD9B
:1046E000039B002B46D00E9B00200F999847030098
:1046F0000B433FD004000D1E1ADA009A019B121BD7
:10470000AB410092019380221206934204D301230D
:104710001A4C5B4200930194039B9A4682E77368AC
:10472000BFF35F8F1C608BF3108801204042D0E7FD
:1047300000F076F98022001969411206009001917B
:104740009142E9D3E3E7D3189C70D119D25D002AD6
:1047500000D05A704B460B706C73307D009A019BF1
:1047600000F0F2F982460028A3D02100306800F062
:1047700003FC9EE70020ACE7FFFFFF0FFFFFFF7F7A
:10478000407D7047F0B504000D0006267642F7170D
:10479000C64636196F4100B584B08F4214D811D087
:1047A00000F03EF932003B00121A8B41002B15DC61
:1047B000002B3ED02000290000F070F904B080BC2E
:1047C000B846F0BD8642EBD90026002700F028F954
:1047D00032003B00121A8B41002BE9DD00230293CB
:1047E0000193154B3200009314483B00FFF70AFF7A
:1047F0000028DFDB00239846BC46114A114F7B6A34
:104800009C4504D8B96AB142D4D29C45D2D1116832
:10481000EFF3108072B60B68002BFCD0BFF35F8FF4
:104820001368BFF35F8F4146196080F3108820BF83
:10483000E5E7002ABED0D1E7A942001044100020CD
:10484000A0F303200040054070B5060000F0E8F832
:10485000FA2204000D00002330000021920003F032
:104860005DFA8023001969411B06994202D3012099
:1048700002494042FFF786FF70BDC046FFFFFF7F41
:10488000F0B5EFF30583CE46474680B505000C0032
:1048900085B0002B12D02A4A0020536AA34203D3CA
:1048A000926A0130AA4204D305B0C0BCB946B046F2
:1048B000F0BD1B1B5A1E9341D8B2F5E7214E02935F
:1048C0000193214B0200009330000B00FFF79AFE8A
:1048D000031EE0DD20BF7168EFF3108772B60A682F
:1048E000002AFCD0BFF35F8FDAB29446FF22306813
:1048F0001A40417B61450FD00168894651008846C6
:1049000049469044414403398978002904D13269E9
:10491000934209D1316107E0F1681B0A8A18013A14
:104920001278DBB29A4207D07368BFF35F8F002220
:104930001A6087F31088AEE7614600F01DFBF3E7CD
:104940000040054044100020A9420010F0B5EFF3EC
:104950000582D6464F4646461000C0B51038EFF3E4
:10496000108872B6214C2368002BFCD0BFF35F8FF8
:104970000123190081401E4D1F006963AA461D4D89
:1049800029601D4D2E78AC463500C5402F402B4286
:1049900015D053465F6A194B8500EB589F4218D3D8
:1049A0006246174B8E43EB581670BFF35F8F0022A1
:1049B000226088F31088002B06D0984704E0BFF3EC
:1049C0005F8F276088F31088E0BCBA46B146A846DE
:1049D000F0BD0C4B92009C46624413681360BFF319
:1049E0005F8F0023236088F31088EDE7280100D053
:1049F000004005403C700540F6F30320B8F3032067
:104A0000E01C0020D03F054010B5034B010018000A
:104A1000024AFFF795F810BDF1F30320A8B3001088
:104A2000034B596A0A00986A596A8A42FAD1704758
:104A30000040054070B504000D00174A536A190084
:104A4000966A536A8B42FAD13000190024184D41FE
:104A5000AB4216D813D0104B2A005B6A9D4203D993
:104A60000D494B6A9342FCD3934207D10A4A02E0B4
:104A7000516A994202D1916AA142F9D370BDA6420E
:104A8000E9D9054B5B6A1C005A1CEFD001220124B6
:104A90006442E5175242E3E700400540064A536A84
:104AA0009942FCD807D1044B02E05A6A914202D1E4
:104AB0009A6A8242F9D370470040054070B50400FD
:104AC0000D00EFF3108672B61A4A1368002BFCD063
:104AD000BFF35F8F002D1BD02000FFF709F91649A7
:104AE00081420AD02000FFF70BF901212000FFF7D7
:104AF000C3F80123A340114A1360114BA400E550F1
:104B0000BFF35F8F00220B4B1A6086F3108870BDD5
:104B10000121A1400A4BA200D5500A4B20001A786F
:104B20008A4305491A70FFF705FA00212000FFF7B4
:104B3000A3F8E5E7280100D04D4900103860054092
:104B4000E01C0020F6F30320F0B54F46D64646465B
:104B5000C0B507002B4C616A0D00A66A616AA942C4
:104B6000FAD18B4208D805D00120E0BCBA46B14644
:104B7000A846F0BDB242F7D9EFF3108A72B62248C8
:104B800001680029FCD0BFF35F8F0125BD401F499C
:104B90001C4C8846097889462943C9B28C4641464F
:104BA00060460870391D890065630A511849B800CC
:104BB0004350216A0020294219D0616A0800A66A80
:104BC000616A8142FAD18B4219D801D1B24216D81A
:104BD000CC450BD00B4B1F221D625D6301233A4075
:104BE00093400C4A136043464A461A700120BFF3B3
:104BF0005F8F0022044B1A608AF31088B5E700200B
:104C0000F5E7C04600400540280100D0F6F3032038
:104C1000B8F3032080E200E0EFF3108C72B60A498B
:104C20000B68002BFCD0BFF35F8F01238340074A42
:104C30000748136202789A430270BFF35F8F002324
:104C40000B608CF310887047280100D000400540AD
:104C5000F6F3032070B506000D00140000291DD0E6
:104C6000002A12D073688068984762006B0012199E
:104C70005B193168033A033B002808D08A18957005
:104C8000C818CB5C002B0BD10470280070BDCB186A
:104C90009C7088188A5C002A05D105702000F5E711
:104CA00053700470F1E75A700570F7E710B5836030
:104CB0000023CCB243730133426004738373C47323
:104CC0000068421C012C05D90133DBB2137003329A
:104CD0009C42F9D1FF230B405A00D318C01800237F
:104CE0000338437010BDC04670B505000C1E07D0D8
:104CF000630001681B19033BCB185A78002A01D1C5
:104D0000200070BD500080180338091800204E782C
:104D10004870210058702800FFF79CFF3100040004
:104D20002800FFF7E1FF0600002C20D00028E7D084
:104D3000320021006B68A8689847720063009219DE
:104D40001B192968033A033B002808D08A1894707D
:104D5000C818CB5C002B00D053700670D0E7CB187E
:104D60009E7088188A5C002A00D05A700470340043
:104D7000C6E7C046F0B557464546DE464E46E0B566
:104D80000D006F0001687F19033F0400C85D83B008
:104D90000192CA19002850D043001B18033BCB18BE
:104DA0005E78B446002E1AD1019E002E42D0E67BDA
:104DB000002E04D073009B19CB18033B5D70A37BBE
:104DC000002B00D1A573E57300282FD10023537069
:104DD00003B0F0BCBB46B246A946A046F0BD720087
:104DE0006244033A8A1851788846002151708946F6
:104DF0005970320001002000FFF72CFF4346824625
:104E0000002B07D05B0021684344033BCB185A7842
:104E1000002A16D1424651462000FFF71BFF2168A9
:104E2000019BCA19002BC2D10028CFD043001B1808
:104E3000033BCB1800219970C8E7019B002BB6D12A
:104E4000C4E750008018033809184878834648465C
:104E50004870587041462000FFF7FCFE59468046D6
:104E60002000FFF741FF414602002000FFF7F2FE5D
:104E70008046CFE7F0B557464546DE464E46E0B59C
:104E800083B00191457B04006F0000687F19033FE8
:104E9000C15DC219002952D04B005B18033BC318F7
:104EA0005E78B446002E1CD1019E002E44D0E67BD5
:104EB000002E04D073009B19C318033B5D70A37BC5
:104EC000002B00D1A573E573002931D10023280000
:104ED0005370617303B0F0BCBB46B246A946A0460E
:104EE000F0BD72006244033A821850788046002078
:104EF00050708146587032002000FFF7ABFE4346E9
:104F00008246002B07D05B0021684344033BCB184B
:104F10005A78002A17D1424651462000FFF79AFEE0
:104F2000019B01002068C219002BC0D10029CDD0FF
:104F30004B005B18033BC31800209870C6E7019B29
:104F4000002BB4D1C2E75000801803380918487804
:104F5000834648464870587041462000FFF77AFE65
:104F6000594680462000FFF7BFFE41460200200060
:104F7000FFF770FE8046CEE770B5050000292CD003
:104F8000437B8B422ED04C0000686418033C04190C
:104F9000A278002A21D053009B18033BC25CC6189C
:104FA0008A4202D11BE0002A08D053009B18033B21
:104FB000C3185A788A42F6D162785A7000230122C7
:104FC0002800A3706370FFF7D5FE697B02002800FC
:104FD000FFF740FE6873012000E0002070BD637899
:104FE0003370EBE701221900FFF7C4FEF2E7C04679
:104FF000F0B545464E46DE465746E0B583B016004E
:105000000C9A050088469A4200D973E01A0E93461E
:105010001B0218000193594600230C9A01F0C8FFA7
:10502000354B6C009C466419A40064446368070017
:10503000834200D260602B1FDBB29946C0234A46F0
:105040009B012343012A33D9802212011A602B4B82
:10505000AD0059599A46002907D0586901F06AFFF6
:10506000013043001B18033BFDD2226873015340FB
:10507000E0221A4080235B0123431A604A46012A3A
:105080002BD9802380229B01234312011A605946A9
:1050900000233A000198676001F08AFF5346585197
:1050A000012003B0F0BCBB46B246A946A046F0BD05
:1050B0004246012AC8D102321A60023AA3681A4253
:1050C000FCD0226873015340E0221A4080235B0128
:1050D00023431A60094AAD00924642462168514076
:1050E00003220A401A60012243469A40A3681A42EA
:1050F000FCD0C6E70020D4E7008000404015002027
:1051000010B50C2082B000F003FAFEF7FBFC00287B
:1051100010D08B4B8B488B498B4A18605960986034
:10512000D960186159619861D961186259625A62EF
:1051300002B010BD854CA06700F040FA0122844BFC
:105140001A60636C012BFCD10322824B1A607F4AE8
:10515000936B012BFCD1013301217F4A7F480093DF
:10516000043300F085F905237D4A009301217D4831
:1051700000F07EF97C4B5A68FF2A02D88022520048
:105180005A608022734B6E4C12011A60216900290B
:1051900007D0606901F0CEFE013043001B18033BCD
:1051A000FDD2E022704B714819680A400260022269
:1051B0001968514001320A40042102609A68114284
:1051C000FCD080216A4A09011160802252005A6095
:1051D000684B2361684B5968FF2900D85A60032245
:1051E00001215B4B1A60644A93681942FCD0E023AA
:1051F0001068034061480360126803234A4002219B
:1052000013405D4A036093681942FCD080215C4BD7
:105210000901196080215B4B4900516063615A4B61
:105220005A68FF2A00D859608022584B12011A6030
:10523000E169002907D0606901F07CFE013043007C
:105240001B18033BFDD2E0234F4A11680B40504925
:105250000B6080214F4B090119608021394B4900B7
:105260005160E3614C4B5A68FF2A00D85960802294
:105270004A4B12011A60216A002907D0606901F0C7
:1052800059FE013043001B18033BFDD2E023424A84
:1052900011680B4042490B608021424B09011960A3
:1052A00080235B0053608022264BD20223623E4B58
:1052B0005968914200D25A6080223C4B12011A6018
:1052C000616A002907D0606901F034FE01304300B3
:1052D0001B18033BFDD2E023334A11680B403449CD
:1052E0000B608021334B090119608023DB0253607E
:1052F000154B6362304B5A68FF2A02D88022520055
:105300005A6080222D4B12011A60A169002907D032
:10531000606901F00FFE013043001B18033BFDD212
:10532000E023254A11680B4025490B608021254B5D
:105330000901196080235B005360124BA361F7E6FB
:1053400040150020006CDC021BB70000008000400C
:105350003CB0004030B00040002F6859008002404F
:10536000008C864700C002403080004030900040F2
:1053700030A00040001BB7003C8000403C90004043
:105380003CA00040405973075480004054B0004096
:105390005490004054A000406080004060B0004045
:1053A0006090004060A000406C8000406CB0004005
:1053B0006C9000406CA000404880004048B0004025
:1053C0004890004048A00040014B8000C058704702
:1053D00040150020802270B506000E4C5200A369D3
:1053E0001D0015401342FAD1FA210B4B89001869B0
:1053F00001F0A0FD0A2310212060064A23610B3B27
:105400006560A360666193691942FCD0D069400968
:1054100070BDC046808000404015002070B5152842
:105420001FD017281BD018281DD00500193D6C1E51
:10543000A54102246D42A54303354C018021090199
:1054400021436C006419094DA400AC461202644467
:105450001A43216008216260FEF71EFB70BD012522
:10546000EBE70025E9E70225E7E7C04600800040BA
:10547000F8B5040021481D0017000E0001F05AFD88
:105480000100380001F056FD069B29041B03194357
:105490002368002B20DB1A4B1A4DE21853425A4165
:1054A00080235B019C461203174B62441A60174B22
:1054B0001A601700AB689F43FBD1C022231D9201E5
:1054C0001A4321232660A06013602368002BFCDAB6
:1054D0000823E1601360F8BD3F2322681340B34204
:1054E000D9D1A3681B051B0D8342D4D1EE22E368FA
:1054F000D20213408B42CED1EDE7C046001BB7006D
:105500000040FDBF00C0004000E0004000F000404F
:105510008023024A9B000343D3627047008005400A
:1055200010B580241C4BE4051C6000281AD0012310
:105530001A4C18431A4BDC611A4C44401C625962E5
:1055400098628021144BC9051960174817490860F3
:10555000E021C9041960002A07D18022144B1206E9
:105560001A6010BD0E4BD861EBE753019B1A9B00EC
:105570009A18802312015B049A4209D213000D4944
:105580000B60074B5A608022094BD2051A60E8E78E
:10559000094B1A00F3E7C04600B00540D3C007B07E
:1055A000008005402D3FF84FFCFF0100082001401E
:1055B00000A0054074F20320FFFFFF00AA23064A63
:1055C0001B0113602F230549D360054B19605368F5
:1055D000002BFCDA7047C0460040024000B0FA00E1
:1055E000006002402B4B2C4A70B51A602B4A2C4BA2
:1055F0002C491A6014008B689C43FBD12A4D2B4E1A
:10560000B54208D2013E761BB60808CD9847230064
:105610000134B342F9D1FFF773FD254A204B1A60DC
:10562000204A9368DB43DB01DD09002BF9D14022DE
:10563000204B214E214C9A675A671A67DA66B442AA
:1056400008D2236820000834002B1FD0FEF7ECFDA1
:10565000B442F6D31A4C1B4EC022B168200002F0AF
:1056600053FCB460FEF7DCFAFEF7A0FDFEF790FFF6
:10567000154C164EB44208D2013E361BB60808CC73
:1056800098472B0001359E42F9D170BDFEF7BEFD53
:10569000D5E7C04600E00040BFCDFBFEFE7F3C00EA
:1056A00000F0004000C000400C1500201C15002038
:1056B000FFFFFF0100F001400C150020FC1400204A
:1056C0000000002000ED00E01C150020281500203F
:1056D00000BEFDE710B5FFF7FBFFC0460FB400B5F5
:1056E000084883B002F0DEFC049B002B07D005A91C
:1056F0001800019101F09EFB034802F0D3FC012049
:10570000FFF7E6FFCCB30010D4B0001010B501488D
:10571000FFF7E4FFDCB300107047C046F8B557460A
:105720004546DE464E46E0B598460A9B06009A4638
:105730000D9B0F00934615009B0710D10B9B0C9AF5
:1057400093420CD213005C460B9A9D1A5D442200D2
:105750004346013439002020B047A542F7D10B9CC5
:105760006319002C09D01D0053462A1B013C185D0B
:1057700039004346B047002CF6D10D9B9B070ED550
:105780005B46EC1A0C9BA34209D999462A00434672
:10579000390020200134B0470135A145F6D8280052
:1057A000F0BCBB46B246A946A046F8BDF0B54F4690
:1057B0004646D646C0B584B098460EAB1B78944694
:1057C0009946129B0D9C109F119E9A0724D4002E7F
:1057D0006AD1BC4220D201221A409246202C00D12C
:1057E000D2E00C9A551E302201E0202C30D001343A
:1057F0002A55A742F9D85246002A0DD0B4420BD2FE
:105800000C9A551E3022202C02D126E0202C63D089
:1058100001342A55B442F9D1DA0634D55A0564D494
:10582000002C5ED10F9A102A00D197E0022A00D1F5
:10583000A8E030220C9C227001244A46002A5ED146
:105840005A0700D483E02B220C9D2A5501341CE01A
:105850005246002A02D0202E3ED92024DA0614D542
:105860005A0512D4202F00D1A1E0202E3DD12026B0
:105870001F2234000F9D102D00D18BE0022D52D03D
:1058800030250C9FBD54202CD7D103930C9B62462E
:105890000093029643460194FFF740FF04B0E0BC3A
:1058A000BA46B146A846F0BD012215001D40AA46E1
:1058B0001A4229D04A46002A39D10C321A4236D12E
:1058C000BC429BD2202C00D08BE710221A40202E05
:1058D000C3D8002AA2D1D8E72024DA06D5D55A05A4
:1058E00003D4A74225D0B44223D00F9A102A25D042
:1058F000022A14D0202CC8D022000134C0E72D2267
:105900000C9D2A550134C0E7BC4200D384E7202C0B
:1059100000D066E710221A40002AE0D1B5E7202C1B
:10592000B3D02200013462250C9FBD54E2E7013E52
:10593000C6E7621E012C00D174E79BE79A0616D4D5
:10594000202CA2D078220C9D2A550134D2E71A07C8
:105950009BD520220C9D2A55013496E79A060FD438
:1059600078220C9C227030226270022465E7202C81
:1059700000D18AE758250C9A121915700134B9E73D
:105980005822EEE76222ECE7102255461A40002D1D
:105990009FD1C1E7023C9D0604D478250C9F3D555C
:1059A0001400A9E758250C9F3D551400A4E71F22B9
:1059B00060E7C04610B5002800D110BD02F026FBFC
:1059C000FBE7C0460B0010B5002802D049681B68F1
:1059D000984710BDF0B557464E464546DE46E0B501
:1059E00099B08246894690460893229A239B1000DC
:1059F000190001F060FD002800D0CDE02298239925
:105A00000122D94B524201F051FD002800D0C3E0E1
:105A1000229823990122D54B524201F039FD0028EA
:105A200000D0B9E0229823990022002301F030FD34
:105A3000002800D0F1E1229E239F8023269ADB00DC
:105A40001A400D92269A1A4201D1062324938023EC
:105A5000269A1B011A403B0093460996334300D017
:105A6000B3E0002A00D0C2E1002300240A930B9483
:105A7000002304250993259B0024AB4200D95C1B1D
:105A80000223269A1A400C92269A134203D06B42A4
:105A90006B415B421C40099B002B07D00A9A0B9B71
:105AA0003000390001F093FC06000F002298239982
:105AB0000022002301F0ECFC002803D0802109061D
:105AC0007B181F00269AAA4B009601971340089E48
:105AD0000493249B03940293424633004946504664
